:100000000C9434000C9451000C9451000C94510049
:100010000C9451000C9451000C9451000C9451001C
:100020000C9451000C9451000C9451000C946300FA
:100030000C9451000C9451000C9451000C945100FC
:100040000C9451000C9451000C9451000C945100EC
:100050000C9451000C9453000C9451000C945100DA
:100060000C9451000C94510011241FBECFEFD8E026
:10007000DEBFCDBF11E0A0E0B1E0E4EBF1E002C0F3
:1000800005900D92A030B107D9F711E0A0E0B1E0E2
:1000900001C01D92A230B107E1F70E9494000C94B8
:1000A000D8000C9400001F920F920FB60F921124EB
:1000B0008F9380917900809301018F910F900FBEF3
:1000C0000F901F9018951F920F920FB60F92112448
:1000D0002F938F939F938BB180588BB920910101FF
:1000E00080910001281799F0222349F0822F90E097
:1000F000689415F8880F991F1694E1F702C080E400
:1001000090E0909389008093880020930001809173
:100110007A00806480937A009F918F912F910F9045
:100120000FBE0F901F901895579A259A80917C00CA
:10013000806280937C0080917C0080937C00809121
:100140007E00816080937E0080917A00876080933A
:100150007A0080917A00886880937A0089E18093A0
:1001600000018091810088608093810080916F0000
:10017000826080936F0080E496E090938900809382
:10018000880080918100856080938100789481E06F
:100190008093010190E285B1892785B92FEF34E37F
:1001A0004CE0215030404040E1F700C00000F3CF68
:0401B000F894FFCFF1
:00000001FF
