:100000000C9434000C9451000C9451000C94510049
:100010000C9470000C9451000C9451000C945100FD
:100020000C9451000C9451000C9451000C9451000C
:100030000C9451000C9451000C9451000C945100FC
:100040000C9451000C9451000C9451000C945100EC
:100050000C9451000C9451000C9451000C945100DC
:100060000C9451000C94510011241FBECFEFD8E026
:10007000DEBFCDBF11E0A0E0B1E0E4E5F3E002C0F7
:1000800005900D92A230B107D9F711E0A2E0B1E0DE
:1000900001C01D92A630B107E1F70E9471010C94D6
:1000A000A8010C940000A0E8B0E08C9183608C93D0
:1000B000E1E8F0E08081886180838C9180628C939C
:1000C00082EE94E090938900809388008EE590E022
:1000D00090938B0080938A00808184608083089550
:1000E0001F920F920FB60F9211242F938F939F930D
:1000F00096B190729093030186B180718093040150
:10010000903221F4882361F481E00DC0992369F4D1
:10011000882311F482E007C0803139F483E003C002
:10012000803119F484E0809305012091050121308C
:1001300039F4809102018430D9F0823051F520C029
:10014000223039F480910201813091F0833009F539
:1001500017C0233039F480910201823049F0843095
:10016000C1F40EC02430A9F480910201833031F42F
:100170008091000190910101019607C0813049F4FE
:10018000809100019091010101979093010180936A
:100190000001209302019F918F912F910F900FBE2C
:1001A0000F901F9018958AB18FEF8AB984B1836040
:1001B00084B987B18F7C87B988B1806388B9ECE74F
:1001C000F0E080818064808380818F77808380816C
:1001D0008062808380818083EAE7F0E080818760AD
:1001E000808380818868808308959BB18295807F19
:1001F000982B9BB99BB198239BB9299A299808956C
:10020000CF93C82F289A82958F700E94F5008C2F6B
:100210000E94F5008FE39FE10197F1F700C0000015
:10022000CF910895CF93DF93EC018991882319F042
:100230000E940001FACFDF91CF910895CF93C82F8C
:10024000289882958F700E94F5008C2F0E94F500EF
:100250008FE39FE10197F1F700C00000CF9108956F
:1002600080580E941E0108958FE59AEE0197F1F7DC
:1002700000C0000083E00E941E018FE19EE4019710
:10028000F1F700C0000083E00E941E018FE99FE0AB
:100290000197F1F700C0000083E00E941E0182E098
:1002A0000E941E018FE39FE10197F1F700C000005B
:1002B00082E00E941E0188E00E941E018FE39FE100
:1002C0000197F1F700C0000080E00E941E018FE05E
:1002D0000E941E018FE39FE10197F1F700C000002B
:1002E00008950E94D300229A0E94530080916800D2
:1002F00082608093680080916C00806380936C00C2
:1003000078948CE890E02FE230E040910001509129
:1003100001014D38510534F0F89490930101809318
:100320000001789440910001509101014F32510534
:1003300034F4F894309301012093000178944091B3
:1003400000015091010150938B0040938A00DDCF52
:04035000F894FFCF4F
:020354005E0049
:00000001FF
