:100000000C9434000C9451000C9451000C94510049
:100010000C9451000C9451000C9451000C9451001C
:100020000C9451000C9451000C9451000C9451000C
:100030000C9451000C9451000C9451000C945100FC
:100040000C9451000C9451000C9451000C945100EC
:100050000C9451000C9451000C9451000C945100DC
:100060000C9451000C94510011241FBECFEFD8E026
:10007000DEBFCDBF11E0A0E0B1E0EEECF1E002C0E8
:1000800005900D92A632B107D9F711E0A6E2B1E0D2
:1000900001C01D92A632B107E1F70E94CC000C947A
:1000A000E5000C9400002BB1982F907F922B9BB908
:1000B0009BB18F6089238BB9299A2998662331F0E7
:1000C0008FE39FE10197F1F700C000000895CF93FF
:1000D000DF93C82FD62F85B18C7F85B98C2F60E038
:1000E0000E9453008C2F8295807F6D2F0E945300B9
:1000F000DF91CF910895CF93C82F2998289A60E077
:100100000E9453008C2F8295807F61E00E945300F3
:10011000CF910895CF93DF93EB01806861E00E9457
:10012000670002C00E947B0089918823D9F7DF9184
:10013000CF9108958FE59AEE0197F1F700C0000086
:1001400080E360E00E9453008FE79EE30197F1F7A0
:1001500000C0000080E360E00E9453008FED91E05A
:100160000197F1F700C0000080E360E00E945300B7
:1001700080E261E00E94530088E261E00E94670033
:100180008FE061E00E94670008958FE39FE101978F
:10019000F1F700C0000008958AB1806F8AB984B178
:1001A000836084B90E949A006091240170912501B6
:1001B00080E090E00E948A0060911101709112012C
:0E01C00080E490E00E948A00FFCFF894FFCF09
:1001CE003E3E205553432045453130394C203C3C72
:1001DE000000014C434420546573742050726F67C5
:0601EE0072616D001301B7
:00000001FF
