:100000000C9434000C9451000C9451000C94510049
:100010000C9453000C9451000C9451000C9451001A
:100020000C9451000C9451000C9451000C9451000C
:100030000C9451000C9451000C9451000C945100FC
:100040000C9451000C9451000C9451000C945100EC
:100050000C9451000C9451000C9451000C945100DC
:100060000C9451000C94510011241FBECFEFD8E026
:10007000DEBFCDBF11E0A0E0B1E0ECE8F9E002C0E6
:1000800005900D92A231B107D9F711E0A2E1B1E0DC
:1000900001C01D92AC31B107E1F70E94B6010C948A
:1000A000C4040C9400001F920F920FB60F921124FB
:1000B0002F933F934F935F936F937F938F939F9370
:1000C000AF93BF93CF93DF93EF93FF9386B180728B
:1000D0008093130186B18071809314018091130184
:1000E000803231F480911401882311F481E01DC025
:1000F00080911301882331F480911401882311F435
:1001000082E013C080911301882331F4809114019F
:10011000803111F483E009C080911301803239F4F9
:1001200080911401803119F484E08093170180914B
:100130001701813049F480911201843039F18091A6
:1001400012018230B1F52CC080911701823049F440
:10015000809112018130D1F080911201833049F5F4
:100160001FC080911701833049F4809112018230C1
:1001700069F0809112018430E1F412C0809117017E
:100180008430B9F480911201833031F480911501EB
:1001900090911601019609C080911201813049F4B5
:1001A000809115019091160101979093160180930B
:1001B0001501809117018093120120911501309152
:1001C000160100D000D000D0EDB7FEB73196C8E1DF
:1001D000D1E0ADB7BEB71296DC93CE9311978EE007
:1001E00091E093838283358324830E94ED018DB750
:1001F0009EB706960FB6F8949EBF0FBE8DBF89E0DE
:100200000E947501CE010E945701FF91EF91DF918D
:10021000CF91BF91AF919F918F917F916F915F919E
:100220004F913F912F910F900FBE0F901F901895F7
:100230008AB18FEF8AB984B1836084B987B18F7C2A
:1002400087B988B1806388B9ECE7F0E08081806489
:10025000808380818F7780838081806280838081AA
:100260008083EAE7F0E0808187608083808188680E
:10027000808308959BB18295807F982B9BB99BB119
:1002800098239BB9299A29980895CF93C82F289A23
:1002900082958F700E943A018C2F0E943A018FE361
:1002A0009FE10197F1F700C00000CF910895CF932F
:1002B000DF93EC018991882319F00E944501FACF60
:1002C000DF91CF910895CF93C82F289882958F7092
:1002D0000E943A018C2F0E943A018FE39FE101971F
:1002E000F1F700C00000CF91089580580E9463018B
:1002F00008958FE59AEE0197F1F700C0000083E0C2
:100300000E9463018FE19EE40197F1F700C00000B5
:1003100083E00E9463018FE99FE00197F1F700C03D
:10032000000083E00E94630182E00E9463018FE38A
:100330009FE10197F1F700C0000082E00E94630195
:1003400088E00E9463018FE39FE10197F1F700C00D
:10035000000080E00E9463018FE00E9463018FE350
:100360009FE10197F1F700C000000895CF93DF935C
:10037000CDB7DEB72E970FB6F894DEBF0FBECDBF58
:100380000E9479010E94180180E00E94750181E0BD
:100390000E94630181E00E947501DE011196E0E098
:1003A000F1E089E001900D928150E1F7FE013A966B
:1003B00085E0DF011D928A95E9F7CE0101960E9442
:1003C00057018091680082608093680080916C0082
:1003D000806380936C007894FFCFAEE0B0E0E3EFF1
:1003E000F1E00C949B040D891E8986E08C831A83AE
:1003F00009838FEF9FE79E838D83AE01475E5F4F3A
:10040000CE0101966F89788D0E940F02EF81F885E9
:10041000E00FF11F10822E96E4E00C94B704ADE0DB
:10042000B0E0E5E1F2E00C948D043C017D876C873F
:100430005A01FC0117821682838181FFC8C12E01F7
:100440000894411C511CF3019381EC85FD8593FDBB
:10045000859193FF8191FD87EC87882309F4B3C1CF
:10046000853241F493FD859193FF8191FD87EC875F
:10047000853229F490E0B3010E940304E4CFFF2405
:10048000EE2410E01032B0F48B3269F08C3228F494
:10049000803251F0833271F40BC08D3239F08033E9
:1004A00049F411602CC01260146029C0186027C084
:1004B000106125C017FD2EC0282F20532A3098F434
:1004C00016FF08C08F2D880FF82EFF0CFF0CF80EBA
:1004D000F20E15C08E2D880FE82EEE0CEE0CE80EF5
:1004E000E20E10620CC08E3221F416FD6CC1106455
:1004F00006C08C3611F4106802C0883659F4EC85B9
:10050000FD8593FD859193FF8191FD87EC8788237D
:1005100009F0B8CF982F9554933018F0905293303B
:1005200038F424E030E0A20EB31E3FE339830FC05D
:10053000833631F0833781F0833509F05AC022C009
:10054000F5018081898322E030E0A20EB31E21E014
:10055000C22ED12C420114C092E0292E312C2A0C3B
:100560003B1CF5018080918016FF03C06F2D70E069
:1005700002C06FEF7FEFC4010E94F8036C015101CC
:100580001F7715C082E0282E312C2A0C3B1CF50168
:100590008080918016FF03C06F2D70E002C06FEF66
:1005A0007FEFC4010E94ED036C011068510113FD3F
:1005B0001CC006C080E290E0B3010E940304EA94EC
:1005C0008E2D90E0C816D906A8F30FC0F40117FDD0
:1005D000859117FF81914F0190E0B3010E940304C0
:1005E000E110EA940894C108D108C114D10471F74C
:1005F000E7C0843611F0893651F5F50117FF07C0C1
:1006000080819181A281B38124E030E008C08081A3
:100610009181AA2797FDA095BA2F22E030E0A20E83
:10062000B31E012F0F76B7FF08C0B095A095909527
:1006300081959F4FAF4FBF4F0068BC01CD01A20114
:100640002AE030E00E942F04D82ED4183FC085370E
:1006500021F41F7E2AE030E020C0197F8F36A9F0F8
:10066000803720F4883509F0AEC00BC0803721F008
:10067000883709F0A8C001C0106114FF09C01460D8
:1006800007C014FF08C0166006C028E030E005C0AF
:1006900020E130E002C020E132E0F50117FF07C0A1
:1006A000608171818281938144E050E006C0608165
:1006B000718180E090E042E050E0A40EB51EA201FE
:1006C0000E942F04D82ED418012F0F7706FF09C0DF
:1006D0000E7FDF1430F404FF06C002FD04C00F7E5D
:1006E00002C01D2D01C01F2D802F90E004FF0CC003
:1006F000FE01ED0DF11D2081203311F4097E09C0AA
:1007000002FF06C01E5F05C086789070009709F052
:100710001F5F802E992403FD12C000FF0DC0FD2C29
:100720001E1550F4FE0CF11A1E2D06C080E290E05A
:10073000B3010E9403041F5F1E15C0F304C01E1501
:1007400010F4E11A01C0EE2484FE0FC080E390E0B3
:10075000B3010E94030482FE1FC081FE03C088E52E
:1007600090E010C088E790E00DC0C40186789070DA
:10077000009791F081FC02C080E201C08BE207FD8E
:100780008DE290E0B3010E94030406C080E390E094
:10079000B3010E940304FA94DF14C0F3DA94F20167
:1007A000ED0DF11D808190E0B3010E940304DD2076
:1007B000A9F706C080E290E0B3010E940304EA9426
:1007C000EE20C1F740CEF3018681978102C08FEF02
:1007D0009FEF2D96E2E10C94A904FC010590615075
:1007E00070400110D8F7809590958E0F9F1F089547
:1007F000FC016150704001900110D8F780959095F0
:100800008E0F9F1F08950F931F93CF93DF938C013B
:10081000EB018B8181FF1BC082FF0DC02E813F81C8
:100820008C819D812817390764F4E881F98101934F
:10083000F983E88306C0E885F985802F099500973C
:1008400031F48E819F8101969F838E8302C00FEFCA
:100850001FEFC801DF91CF911F910F910895FA0109
:10086000AA27283051F1203181F1E8946F936E7FEF
:100870006E5F7F4F8F4F9F4FAF4FB1E03ED0B4E0E0
:100880003CD0670F781F891F9A1FA11D680F791F21
:100890008A1F911DA11D6A0F711D811D911DA11D32
:1008A00020D009F468943F912AE0269F1124301942
:1008B000305D3193DEF6CF010895462F4770405DDD
:1008C0004193B3E00FD0C9F7F6CF462F4F70405D8C
:1008D0004A3318F0495D31FD4052419302D0A9F7E7
:1008E000EACFB4E0A6959795879577956795BA95E1
:1008F000C9F700976105710508959B01AC010A2EA7
:1009000006945795479537952795BA95C9F7620F7D
:10091000731F841F951FA01D08952F923F924F9221
:100920005F926F927F928F929F92AF92BF92CF927F
:10093000DF92EF92FF920F931F93CF93DF93CDB788
:10094000DEB7CA1BDB0B0FB6F894DEBF0FBECDBF00
:1009500009942A88398848885F846E847D848C84D1
:100960009B84AA84B984C884DF80EE80FD800C81DA
:100970001B81AA81B981CE0FD11D0FB6F894DEBFBD
:0C0980000FBECDBFED010895F894FFCF2D
:10098C00436F756E7465723A0000000000002534E8
:02099C006400F5
:00000001FF
