:100000000C9434000C9451000C9451000C94510049
:100010000C9492000C9451000C9451000C945100DB
:100020000C9451000C9451000C9451000C9451000C
:100030000C9451000C9451000C9451000C945100FC
:100040000C9451000C9451000C9451000C945100EC
:100050000C9451000C9451000C9451000C945100DC
:100060000C9451000C94510011241FBECFEFD8E026
:10007000DEBFCDBF11E0A0E0B1E0EAE7F2E002C0F0
:1000800005900D92A830B107D9F711E0A8E0B1E0D2
:1000900001C01D92AE30B107E1F70E94FB000C9445
:1000A0003B010C9400009091C00095FFFCCF809321
:1000B000C60008951F93CF93DF9300D0CDB7DEB76E
:1000C000182F82E04A8369830E945300812F0E9487
:1000D00053006981862F0E9453004A81842F0E9419
:1000E000530083E00E9453000F900F90DF91CF9157
:1000F0001F91089580E56FE446E40E945A00089538
:1001000080E56FE44EE40E945A00089584E46AE5B5
:1001100045E50E945A00089584E46AE544E40E949B
:100120005A0008951F920F920FB60F9211242F9329
:100130003F934F935F936F937F938F939F93AF936F
:10014000BF93EF93FF9386B126B190E080719070DA
:1001500034E0959587953A95E1F730E0207230705C
:1001600045E0359527954A95E1F7220F331F820F19
:10017000931F90930D0180930C0120910C013091FD
:100180000D018091080190910901FC01EC5FFE4F87
:100190004081552747FD50952417350719F40E94D3
:1001A000860010C020910C0130910D0180509F4FAE
:1001B000FC018081992787FD90952817390711F454
:1001C0000E948C0080910C0190910D019093090187
:1001D00080930801FF91EF91BF91AF919F918F9113
:1001E0007F916F915F914F913F912F910F900FBE33
:1001F0000F901F901895519A83E390E09093C5005B
:100200008093C4008091C10088618093C10086E022
:100210008093C20080916800826080936800809122
:100220006C00806380936C00789487B1806387B999
:1002300088B1886388B9C1E0D0E03399FECF80915E
:100240000A0190910B01009771F40E948000D093F5
:100250000B01C0930A0107C00E947A0010920B01A3
:1002600010920A01EACF80910A0190910B0181302E
:0A027000910519F7F1CFF894FFCFC4
:08027A00020003010103000270
:00000001FF
