:100000000C9434000C9451000C9451000C94510049
:100010000C9451000C9451000C9451000C9451001C
:100020000C9451000C9451000C9451000C9451000C
:100030000C9451000C9451000C9451000C945100FC
:100040000C9451000C9451000C9451000C945100EC
:100050000C9451000C9451000C9451000C945100DC
:100060000C9451000C94510011241FBECFEFD8E026
:10007000DEBFCDBF11E0A0E0B1E0E6EBF1E002C0F1
:1000800005900D92A030B107D9F711E0A0E0B1E0E2
:1000900001C01D92A030B107E1F70E9453000C94FB
:1000A000D9000C9400008AB18E6F8AB980917C00CF
:1000B000807F80937C0080917C00806280937C00B4
:1000C00080917C008F6780937C0080917C008064AD
:1000D00080937C0080917A00866080937A00809182
:1000E0007A008E7F80937A0080917A008068809376
:1000F0007A0080917A00806480937A008091790000
:100100008A3120F49BB191789BB95F9A982F9A51CC
:100110009A3120F458989BB1926F9BB9982F9453C1
:10012000993130F49BB199749BB99BB198649BB998
:10013000982F9D549A3130F49BB191769BB99BB125
:1001400090669BB9982F97569A3130F49BB1937370
:100150009BB99BB192639BB9982F9158993130F418
:100160009BB195729BB99BB194629BB9982F9A5998
:100170009A3120F49BB195709BB95A9A982F945B51
:10018000993130F49BB1917F9BB99BB1906F9BB932
:10019000982F9D5C9A3118F48BB1817008C0873E0E
:1001A00008F4A7CF8BB181738BB98BB180638BB906
:0601B000A0CFF894FFCF80
:00000001FF
