:100000000C9434000C9451000C9451000C94510049
:100010000C9451000C9451000C9451000C9451001C
:100020000C9451000C9451000C9451000C9451000C
:100030000C9451000C9451000C9451000C945100FC
:100040000C9451000C9451000C9451000C945100EC
:100050000C9451000C9451000C9451000C945100DC
:100060000C9451000C94510011241FBECFEFD8E026
:10007000DEBFCDBF11E0A0E0B1E0EAE1F9E002C0EF
:1000800005900D92A431B107D9F711E0A4E1B1E0D8
:1000900001C01D92A431B107E1F70E948D010C94BB
:1000A0008B040C9400009BB18295807F982B9BB9A8
:1000B0009BB198239BB9299A29980895CF93C82F6B
:1000C000289A82958F700E9453008C2F0E945300B3
:1000D0008FE39FE10197F1F700C00000CF910895F1
:1000E000EF92FF920F931F93CF93DF93EC01099050
:1000F0000020E9F72197C81BD90B7C0100E010E034
:1001000007C0F70181917F010E945E000F5F1F4FC2
:100110000C171D07B4F3DF91CF911F910F91FF9042
:10012000EF900895CF93C82F289882958F700E94E2
:1001300053008C2F0E9453008FE39FE10197F1F74A
:1001400000C00000CF91089580580E949200089549
:100150008FE59AEE0197F1F700C0000083E00E945E
:1001600092008FE19EE40197F1F700C0000083E068
:100170000E9492008FE99FE00197F1F700C0000014
:1001800083E00E94920082E00E9492008FE39FE150
:100190000197F1F700C0000082E00E94920088E021
:1001A0000E9492008FE39FE10197F1F700C00000E9
:1001B00080E00E9492008FE00E9492008FE39FE116
:1001C0000197F1F700C000000895CF93DF93CDB7FA
:1001D000DEB7A0970FB6F894DEBF0FBECDBFDE012D
:1001E0005196E0E0F1E089E001900D928150E1F755
:1001F000FE017A9687E0DF011D928A95E9F7CE012C
:1002000041960E9470008CE495E7A5E7B0E08983F1
:100210009A83AB83BC83FE0135968CE0DF011D928F
:100220008A95E9F780E40E94A400CE0101960E941D
:100230007000A0960FB6F894DEBF0FBECDBFDF9161
:10024000CF910895CF93DF93CDB7DEB761970FB607
:10025000F894DEBF0FBECDBF20E08E010F5F1F4FB1
:1002600080E1E82E81E0F82E80917A00806480930E
:100270007A0080917A0086FDFCCF9091790080E031
:10028000298B988B0E94A40098892989903110F4B9
:10029000215016C0892F8556803410F42F5F10C06E
:1002A000892F8151813210F4265F0AC0892F835330
:1002B000813310F42A5004C0965A923208F420E098
:1002C00000D000D000D0EDB7FEB73196ADB7BEB7C5
:1002D00012961C930E931197F382E282822F992734
:1002E00087FD909595838483298B0E94B4018DB7F7
:1002F0009EB706960FB6F8949EBF0FBE8DBFC8017D
:100300000E9470008FEF91EEA4E081509040A040D9
:10031000E1F700C000002989A7CF8AB18FEF8AB921
:1003200084B1836084B9ECE7F0E0808180648083ED
:1003300080818F77808380818062808380818083C9
:10034000EAE7F0E08081876080838081808380811C
:10035000806880830E94A80081E00E94920080E073
:100360000E94A4000E942201AEE0B0E0EAEBF1E0BE
:100370000C9462040D891E8986E08C831A8309839C
:100380008FEF9FE79E838D83AE01475E5F4FCE0167
:1003900001966F89788D0E94D601EF81F885E00F74
:1003A000F11F10822E96E4E00C947E04ADE0B0E0E4
:1003B000ECEDF1E00C9454043C017D876C875A010C
:1003C000FC0117821682838181FFC8C12E01089427
:1003D000411C511CF3019381EC85FD8593FD8591B2
:1003E00093FF8191FD87EC87882309F4B3C185329F
:1003F00041F493FD859193FF8191FD87EC878532D0
:1004000029F490E0B3010E94CA03E4CFFF24EE2454
:1004100010E01032B0F48B3269F08C3228F4803264
:1004200051F0833271F40BC08D3239F0803349F4CE
:1004300011602CC01260146029C0186027C01061C0
:1004400025C017FD2EC0282F20532A3098F416FF00
:1004500008C08F2D880FF82EFF0CFF0CF80EF20E3F
:1004600015C08E2D880FE82EEE0CEE0CE80EE20E75
:1004700010620CC08E3221F416FD6CC1106406C0EF
:100480008C3611F4106802C0883659F4EC85FD856D
:1004900093FD859193FF8191FD87EC87882309F077
:1004A000B8CF982F9554933018F09052933038F479
:1004B00024E030E0A20EB31E3FE339830FC0833641
:1004C00031F0833781F0833509F05AC022C0F5013D
:1004D0008081898322E030E0A20EB31E21E0C22E8B
:1004E000D12C420114C092E0292E312C2A0C3B1C45
:1004F000F5018080918016FF03C06F2D70E002C06F
:100500006FEF7FEFC4010E94BF036C0151011F77A1
:1005100015C082E0282E312C2A0C3B1CF50180806E
:10052000918016FF03C06F2D70E002C06FEF7FEF68
:10053000C4010E94B4036C011068510113FD1CC07A
:1005400006C080E290E0B3010E94CA03EA948E2DB7
:1005500090E0C816D906A8F30FC0F40117FD8591E5
:1005600017FF81914F0190E0B3010E94CA03E1108F
:10057000EA940894C108D108C114D10471F7E7C006
:10058000843611F0893651F5F50117FF07C08081D7
:100590009181A281B38124E030E008C08081918103
:1005A000AA2797FDA095BA2F22E030E0A20EB31E35
:1005B000012F0F76B7FF08C0B095A0959095819553
:1005C0009F4FAF4FBF4F0068BC01CD01A2012AE091
:1005D00030E00E94F603D82ED4183FC0853721F4AE
:1005E0001F7E2AE030E020C0197F8F36A9F08037C7
:1005F00020F4883509F0AEC00BC0803721F0883771
:1006000009F0A8C001C0106114FF09C0146007C040
:1006100014FF08C0166006C028E030E005C020E1E5
:1006200030E002C020E132E0F50117FF07C0608131
:1006300071818281938144E050E006C060817181C4
:1006400080E090E042E050E0A40EB51EA2010E94BE
:10065000F603D82ED418012F0F7706FF09C00E7F9E
:10066000DF1430F404FF06C002FD04C00F7E02C098
:100670001D2D01C01F2D802F90E004FF0CC0FE0136
:10068000ED0DF11D2081203311F4097E09C002FF18
:1006900006C01E5F05C086789070009709F01F5F46
:1006A000802E992403FD12C000FF0DC0FD2C1E15E5
:1006B00050F4FE0CF11A1E2D06C080E290E0B3014A
:1006C0000E94CA031F5F1E15C0F304C01E1510F45C
:1006D000E11A01C0EE2484FE0FC080E390E0B30174
:1006E0000E94CA0382FE1FC081FE03C088E590E01D
:1006F00010C088E790E00DC0C40186789070009724
:1007000091F081FC02C080E201C08BE207FD8DE226
:1007100090E0B3010E94CA0306C080E390E0B301F9
:100720000E94CA03FA94DF14C0F3DA94F201ED0DCB
:10073000F11D808190E0B3010E94CA03DD20A9F77A
:1007400006C080E290E0B3010E94CA03EA94EE2062
:10075000C1F740CEF3018681978102C08FEF9FEFF2
:100760002D96E2E10C947004FC01059061507040FC
:100770000110D8F7809590958E0F9F1F0895FC016A
:100780006150704001900110D8F7809590958E0FC0
:100790009F1F08950F931F93CF93DF938C01EB015D
:1007A0008B8181FF1BC082FF0DC02E813F818C8118
:1007B0009D812817390764F4E881F9810193F98351
:1007C000E88306C0E885F985802F0995009731F404
:1007D0008E819F8101969F838E8302C00FEF1FEF52
:1007E000C801DF91CF911F910F910895FA01AA27B7
:1007F000283051F1203181F1E8946F936E7F6E5F64
:100800007F4F8F4F9F4FAF4FB1E03ED0B4E03CD011
:10081000670F781F891F9A1FA11D680F791F8A1FF4
:10082000911DA11D6A0F711D811D911DA11D20D05B
:1008300009F468943F912AE0269F11243019305D15
:100840003193DEF6CF010895462F4770405D419306
:10085000B3E00FD0C9F7F6CF462F4F70405D4A3353
:1008600018F0495D31FD4052419302D0A9F7EACF1B
:10087000B4E0A6959795879577956795BA95C9F74A
:1008800000976105710508959B01AC010A2E06943D
:100890005795479537952795BA95C9F7620F731FF6
:1008A000841F951FA01D08952F923F924F925F9233
:1008B0006F927F928F929F92AF92BF92CF92DF9270
:1008C000EF92FF920F931F93CF93DF93CDB7DEB7D5
:1008D000CA1BDB0B0FB6F894DEBF0FBECDBF099469
:1008E0002A88398848885F846E847D848C849B84C0
:1008F000AA84B984C884DF80EE80FD800C811B81CE
:10090000AA81B981CE0FD11D0FB6F894DEBF0FBEFC
:0A091000CDBFED010895F894FFCF6C
:10091A004A6F6E617468616E00000000000000009A
:04092A00253464000C
:00000001FF
