:100000000C9434000C9451000C9451000C94510049
:100010000C9451000C9451000C9451000C9451001C
:100020000C9451000C9451000C9451000C94E30179
:100030000C9451000C9451000C9451000C945100FC
:100040000C9451000C9451000C9451000C945100EC
:100050000C9451000C94D3010C9451000C94510059
:100060000C9451000C94510011241FBECFEFD8E026
:10007000DEBFCDBF11E0A0E0B1E0EEE0FBE002C0EA
:1000800005900D92AC31B107D9F711E0ACE1B1E0C8
:1000900001C01D92A232B107E1F70E9474020C94D4
:1000A00085050C9400008AB18FEF8AB984B1836012
:1000B00084B9ECE7F0E080818064808380818F7771
:1000C000808380818062808380818083EAE7F0E0A2
:1000D0008081876080838081886880830895E1E8DB
:1000E000F0E0808188608083AFE6B0E08C91826030
:1000F0008C9388EA91E690938900809388008081B0
:100100008360808308959BB18295807F982B9BB9F3
:100110009BB198239BB9299A29980895CF93C82F0A
:10012000289A82958F700E9483008C2F0E948300F2
:100130008FE39FE10197F1F700C00000CF91089590
:10014000CF93DF93EC018991882319F00E948E00F0
:10015000FACFDF91CF910895CF93C82F2898829539
:100160008F700E9483008C2F0E9483008FE39FE199
:100170000197F1F700C00000CF91089580580E94C8
:10018000AC0008958FE59AEE0197F1F700C00000EA
:1001900083E00E94AC008FE19EE40197F1F700C07C
:1001A000000083E00E94AC008FE99FE00197F1F727
:1001B00000C0000083E00E94AC0082E00E94AC001E
:1001C0008FE39FE10197F1F700C0000082E00E94F9
:1001D000AC0088E00E94AC008FE39FE10197F1F74B
:1001E00000C0000080E00E94AC008FE00E94AC00E4
:1001F0008FE39FE10197F1F700C0000008950F938E
:100200001F93CF93DF93CDB7DEB72F970FB6F89438
:10021000DEBF0FBECDBF8FEF93ECA9E081509040C1
:10022000A040E1F700C0000080917A0080648093D4
:100230007A0080917A0086FDFCCF809179008093CE
:100240001E01982F9151913268F590911D019923CB
:10025000B9F4789480911D018F5F80931D018FEF19
:1002600093EFA1E081509040A040E1F700C0000072
:1002700080911C01813009F08BC010921C0188C054
:10028000913081F4F89480911D01815080931D017B
:100290008FEF93EFA1E081509040A040E1F700C0C4
:1002A000000076C08353813308F0B5CF80911D01E3
:1002B00090911C018823E1F5992309F05DC010920B
:1002C0001F01109220011092210186E40E94BE00BD
:1002D000ADB7BEB71A970FB6F894BEBF0FBEADBF8D
:1002E000EDB7FEB731968E010F5F1F4F12961C932C
:1002F0000E93119780E091E0938382838091210196
:1003000084831582809120018683178280911F014A
:10031000808711860E94AE028DB79EB70A960FB6EF
:10032000F8949EBF0FBE8DBFC8010E94A00030C0D0
:10033000813011F5992301F580912101805D898338
:1003400080912001805D8A838EE28B8380911F01E2
:10035000805D8C8386E40E94BE00CE0101960E94DF
:10036000A00080911C018F5F80931C0180911D0172
:10037000815080931D010CC090911C01913009F0B7
:100380004ACF882309F047CF10921C0190931D019A
:100390002F960FB6F894DEBF0FBECDBFDF91CF9181
:1003A0001F910F9108951F920F920FB60F92112473
:1003B0008F938091790080931E018F910F900FBED3
:1003C0000F901F9018951F920F920FB60F92112445
:1003D0000F931F932F933F934F935F936F937F934D
:1003E0008F939F93AF93BF93EF93FF93CF93DF933D
:1003F000CDB7DEB72F97DEBFCDBF80911F018F5FD6
:1004000080931F018A3039F410921F0180912001DE
:100410008F5F80932001809120018A3039F41092FF
:100420002001809121018F5F809321018091210122
:10043000853051F480912001893031F480911F0181
:10044000893011F410921D0180911D018130A1F5B8
:1004500086E40E94BE008DB79EB70A970FB6F89447
:100460009EBF0FBE8DBFEDB7FEB731968E010F5FF9
:100470001F4FADB7BEB712961C930E93119780E035
:1004800091E09383828380912101848315828091FE
:1004900020018683178280911F01808711860E9428
:1004A000AE028DB79EB70A960FB6F8949EBF0FBEE8
:1004B0008DBFC8010E94A0002F96DEBFCDBFDF9187
:1004C000CF91FF91EF91BF91AF919F918F917F91CC
:1004D0006F915F914F913F912F911F910F910F90CD
:1004E0000FBE0F901F901895CF93DF93CDB7DEB757
:1004F00063970FB6F894DEBF0FBECDBF0E94C20057
:100500000E9453000E946F0080E00E94BE0081E0C4
:100510000E94AC0082E00E94BE00DE011696E8E078
:10052000F1E08DE001900D928150E1F71B8ACE0140
:1005300006960E94A00086E40E94BE00DE0111968D
:10054000E6E1F1E085E001900D928150E1F7CE0106
:1005500001960E94A0000E94FF00FDCFAEE0B0E037
:10056000E4EBF2E00C945C050D891E8986E08C8337
:100570001A8309838FEF9FE79E838D83AE01475EC9
:100580005F4FCE0101966F89788D0E94D002EF8176
:10059000F885E00FF11F10822E96E4E00C947805A8
:1005A000ADE0B0E0E6EDF2E00C944E053C017D8755
:1005B0006C875A01FC0117821682838181FFC8C1B2
:1005C0002E010894411C511CF3019381EC85FD859B
:1005D00093FD859193FF8191FD87EC87882309F432
:1005E000B3C1853241F493FD859193FF8191FD87DD
:1005F000EC87853229F490E0B3010E94C404E4CF73
:10060000FF24EE2410E01032B0F48B3269F08C320B
:1006100028F4803251F0833271F40BC08D3239F0FE
:10062000803349F411602CC01260146029C0186036
:1006300027C0106125C017FD2EC0282F20532A3057
:1006400098F416FF08C08F2D880FF82EFF0CFF0CB2
:10065000F80EF20E15C08E2D880FE82EEE0CEE0C63
:10066000E80EE20E10620CC08E3221F416FD6CC151
:10067000106406C08C3611F4106802C0883659F434
:10068000EC85FD8593FD859193FF8191FD87EC8736
:10069000882309F0B8CF982F9554933018F09052D2
:1006A000933038F424E030E0A20EB31E3FE33983E8
:1006B0000FC0833631F0833781F0833509F05AC09B
:1006C00022C0F5018081898322E030E0A20EB31EB2
:1006D00021E0C22ED12C420114C092E0292E312CEF
:1006E0002A0C3B1CF5018080918016FF03C06F2D02
:1006F00070E002C06FEF7FEFC4010E94B9046C018B
:1007000051011F7715C082E0282E312C2A0C3B1C8A
:10071000F5018080918016FF03C06F2D70E002C04C
:100720006FEF7FEFC4010E94AE046C0110685101AD
:1007300013FD1CC006C080E290E0B3010E94C40417
:10074000EA948E2D90E0C816D906A8F30FC0F401E4
:1007500017FD859117FF81914F0190E0B3010E9431
:10076000C404E110EA940894C108D108C114D1046A
:1007700071F7E7C0843611F0893651F5F50117FF9E
:1007800007C080819181A281B38124E030E008C05C
:1007900080819181AA2797FDA095BA2F22E030E0B1
:1007A000A20EB31E012F0F76B7FF08C0B095A0951B
:1007B000909581959F4FAF4FBF4F0068BC01CD0111
:1007C000A2012AE030E00E94F004D82ED4183FC0E5
:1007D000853721F41F7E2AE030E020C0197F8F3654
:1007E000A9F0803720F4883509F0AEC00BC08037FF
:1007F00021F0883709F0A8C001C0106114FF09C0BA
:10080000146007C014FF08C0166006C028E030E07E
:1008100005C020E130E002C020E132E0F50117FF21
:1008200007C0608171818281938144E050E006C0FD
:100830006081718180E090E042E050E0A40EB51E3E
:10084000A2010E94F004D82ED418012F0F7706FFC2
:1008500009C00E7FDF1430F404FF06C002FD04C09F
:100860000F7E02C01D2D01C01F2D802F90E004FFC0
:100870000CC0FE01ED0DF11D2081203311F4097E25
:1008800009C002FF06C01E5F05C086789070009701
:1008900009F01F5F802E992403FD12C000FF0DC0D8
:1008A000FD2C1E1550F4FE0CF11A1E2D06C080E220
:1008B00090E0B3010E94C4041F5F1E15C0F304C082
:1008C0001E1510F4E11A01C0EE2484FE0FC080E36F
:1008D00090E0B3010E94C40482FE1FC081FE03C0E9
:1008E00088E590E010C088E790E00DC0C4018678EC
:1008F0009070009791F081FC02C080E201C08BE211
:1009000007FD8DE290E0B3010E94C40406C080E3BD
:1009100090E0B3010E94C404FA94DF14C0F3DA94A7
:10092000F201ED0DF11D808190E0B3010E94C4043D
:10093000DD20A9F706C080E290E0B3010E94C40464
:10094000EA94EE20C1F740CEF3018681978102C080
:100950008FEF9FEF2D96E2E10C946A05FC01059064
:10096000615070400110D8F7809590958E0F9F1FB1
:100970000895FC016150704001900110D8F78095F6
:1009800090958E0F9F1F08950F931F93CF93DF9322
:100990008C01EB018B8181FF1BC082FF0DC02E817A
:1009A0003F818C819D812817390764F4E881F981A2
:1009B0000193F983E88306C0E885F985802F0995BE
:1009C000009731F48E819F8101969F838E8302C0B0
:1009D0000FEF1FEFC801DF91CF911F910F91089585
:1009E000FA01AA27283051F1203181F1E8946F9360
:1009F0006E7F6E5F7F4F8F4F9F4FAF4FB1E03ED006
:100A0000B4E03CD0670F781F891F9A1FA11D680FA3
:100A1000791F8A1F911DA11D6A0F711D811D911DD6
:100A2000A11D20D009F468943F912AE0269F11244B
:100A30003019305D3193DEF6CF010895462F4770AF
:100A4000405D4193B3E00FD0C9F7F6CF462F4F700A
:100A5000405D4A3318F0495D31FD4052419302D068
:100A6000A9F7EACFB4E0A69597958795779567950E
:100A7000BA95C9F700976105710508959B01AC010E
:100A80000A2E06945795479537952795BA95C9F735
:100A9000620F731F841F951FA01D08952F923F9210
:100AA0004F925F926F927F928F929F92AF92BF927E
:100AB000CF92DF92EF92FF920F931F93CF93DF932A
:100AC000CDB7DEB7CA1BDB0B0FB6F894DEBF0FBE87
:100AD000CDBF09942A88398848885F846E847D84D4
:100AE0008C849B84AA84B984C884DF80EE80FD80D6
:100AF0000C811B81AA81B981CE0FD11D0FB6F8944C
:0E0B0000DEBF0FBECDBFED010895F894FFCF0C
:100B0E00256425642E2564004D792053746F70770B
:0C0B1E0061746368000030302E3000006D
:00000001FF
